:020000040800F2
:1000000020FE01205902000827940208338F0208BD
:1000100025940208F710000895C2020800000000AD
:10002000000000000000000000000000A101000826
:100030004D12000800000000F5010008419C020874
:1000400073020008730200087302000873020008BC
:1000500073020008730200087302000873020008AC
:10006000A5750208730200087302000873020008F5
:10007000730200087302000873020008730200088C
:10008000730200087302000873020008730200087C
:10009000730200087302000873020008730200086C
:1000A00073020008159D020873020008730200081D
:1000B000730200087302000873020008730200084C
:1000C000730200087302000873020008730200083C
:1000D0007302000895A202081DA30208A5A3020846
:1000E000730200087302000873020008730200081C
:1000F000730200087302000873020008730200080C
:1001000073020008730200087302000873020008FB
:1001100073020008730200087302000873020008EB
:1001200073020008730200087302000873020008DB
:1001300073020008730200087302000873020008CB
:1001400073020008730200087302000873020008BB
:1001500073020008730200087302000873020008AB
:10016000730200087302000873020008730200089B
:100170007302000873020008730200080000000008
:100180007302000873020008DFF810D000F00EFFC1
:1001900000480047E1E20208AFF3008020FE0120A2
:1001A0002A4B19680868B0E8F04F80F30988BFF35C
:1001B0006F8F4FF0000080F311887047000000003F
:1001C00006480068006880F3088862B661B6BFF32D
:1001D0004F8FBFF36F8F00DF00BF00BF08ED00E05F
:1001E000DFF80C00016841F470010160704700BF46
:1001F00088ED00E0EFF30980BFF36F8F134B1A68AF
:100200001EF0100F08BF20ED108A20E9F04F10609B
:1002100008B44FF0500080F31188BFF34F8FBFF345
:100220006F8F30F0FFFF4FF0000080F3118808BCA3
:1002300019680868B0E8F04F1EF0100F08BFB0EC66
:10024000108A80F30988BFF36F8F704758350020FC
:10025000EFF30580704700000648804706480047D6
:10026000FEE7FEE7FEE7FEE7FEE7FEE7FEE7FEE766
:10027000FEE7FEE7059D0208890100082DE9F05F11
:100280000546002092469B46884606468146402405
:100290001BE0284641464746224600F051F85346A7
:1002A0005A46C01A914110D311461846224600F012
:1002B0004BFB2D1A67EB01084F4622460120002117
:1002C00000F042FB17EB00094E41201EA4F101048F
:1002D000DFDC484631462A464346BDE8F09F2DE91B
:1002E000F0410024061B254671F1000605DA0124C1
:1002F0000027D0EB070067EB0101161E73F1000623
:1003000005DA0027D2EB0702012567EB0303FFF7AD
:10031000B5FF86460E4617469C46AC4204D00025E3
:10032000D0EB050E65EB010624B10020D2EB0007EF
:1003300060EB030C704631463A466346BDE8F081F7
:10034000202A04DB203A21FA02F00021704721FA2A
:1003500002F3D040C2F12002914008431946704791
:10036000A0F14101192900D8203070470649074AF9
:100370000868504343F2390210440860400870474F
:1003800001490860704700009CC301206D4EC641C2
:1003900010B540EA01040346A40703D009E010C9E0
:1003A000121F10C3042AFAD203E011F8014B03F81C
:1003B000014B521EF9D210BDD2B201E000F8012B60
:1003C000491EFBD270470022F6E710B513460A46D5
:1003D00004461946FFF7F0FF204610BD30B505462C
:1003E0002A460B4612F8010B13F8014B08B1A04244
:1003F000F8D01CB1002802D06D1CF1E7284630BDB2
:1004000010B5044604E00B7800F8013B03B1491C29
:10041000521EF8D2204610BD421C10F8011B0029C4
:10042000FBD1801A704710B5002200E0521C835C9B
:100430008C5CA34201D1002BF8D1D8B2E1B2401AB2
:1004400010BD30B504460020034600E05B1C93421B
:1004500003D2E05CCD5C401BF8D030BD034611F800
:10046000012B00F8012B002AF9D11846704730B54E
:1004700005460020034600E05B1C934205D2EC5C7D
:10048000C85C201A01D1002CF6D130BD70B50646EB
:100490002CF052F8046805460A220021304600F08C
:1004A000A1FC2C6070BD2DE9FE4F804681EA03005F
:1004B000C00F0C46009021F0004123F00045B8EB3E
:1004C0000200A94105D24046214690461C460B46F3
:1004D000024623F00040104347D0270DC7F30A001F
:1004E000C3F30A510290401A019040286BDAC3F31B
:1004F000130040F4801B0098924620B10023D2EBF9
:10050000030A63EB0B0B01985946C0F140025046B9
:1005100000F01AFA06460D4650465946019A00F078
:1005200022FA10EB08006141002487EA115284EAA4
:10053000E7731A4340D0009A62B3019A012A4FEA46
:10054000075215DC001B61EB02014FF0004202EA8A
:100550000752CDE90042001C41F5801132462B467E
:1005600000F0BEFC03B0BDE8F08F40462146F9E73D
:10057000001B61EB0201001C41F5801300185B4178
:100580002018A2F5001747EB030140EAD570B61911
:100590006D4111E06D084FEA360645EAC0754FEA35
:1005A0000752001B61EB0201001C41F58011490854
:1005B0004FEA30000019514132462B4603B0BDE8E6
:1005C000F04F00F07EBC0098012240000023D0EBE9
:1005D000020263EBE073009821464FEAE074B8EB47
:1005E000000061EB0401E9E783F000435BE781F081
:1005F000004158E72DE9FE4F81EA030404F000446E
:1006000021F0004100944FF0000B23F0004350EA2A
:1006100001045ED052EA03045BD0C3F30A54C1F371
:100620000A552C44A4F2F3340194A0FB0254C1F304
:10063000130141F48011C3F3130343F4801301FB4E
:10064000024400FB034E840A970A44EA815447EAB5
:100650008357A4FB076802958D0A05FB07854FEABF
:10066000932C04FB0C542705029D4FEA065847EAD9
:100670001637B5EB08056EEB070C870E920E47EAAE
:10068000811742EA8312A7FB0201B6EB0B0164EB70
:1006900000042B0D43EA0C335E1844EB1C50DA4681
:1006A0005146E7FB0201C5F313044FEA0B3343EA5B
:1006B00014534FEA0432019C43EA0603A4F10C04EC
:1006C0000294009CCDE900B400F00AFC03B0BDE840
:1006D000F08F00200146F9E72DE9F04D81EA03048F
:1006E00004F0004B21F0004514464FF0000A23F0BF
:1006F000004150EA050220D054EA01021DD0C5F3A2
:100700000A570246C5F31303C1F31300C1F30A5697
:1007100040F4801543F48013A7EB0608101BD6465F
:1007200008F2FD3873EB050002D308F1010801E07F
:1007300092185B41B8F1000F03DA00200146BDE8D2
:10074000F08D00204FF48011064684460EE0171B02
:1007500073EB050705D3121B63EB050306434CEA55
:10076000010C49084FEA300092185B4150EA01073A
:10077000EDD152EA030012D082EA040083EA0501B7
:10078000084305D0101BAB4106D20122002306E02E
:1007900000224FF0004302E06FF0010253101AEB09
:1007A00006004CEB085110EB0A0041EB0B01BDE8D1
:1007B000F04D00F086BB0EB540F2334102910021AE
:1007C000CDE900110A460B4600F08AFB03B000BDDC
:1007D00010B500F0004420F00040C20DC0F3160038
:1007E00040F400007F2A02DA0020014610BD0021FB
:1007F000962A03DCC2F19602D04002E0963A00F05D
:10080000A3F8002CF2D00023D0EB030063EB01012E
:1008100010BD70B5C1F30A5201F000450024C1F3C8
:10082000130140F2FF3341F480119A4201DA0020B3
:1008300070BD40F233439A42A2F2334203DC52428B
:10084000FFF77EFD00E090402C43F1D0404270BDA8
:10085000C1F30A5210B5C1F3130140F2FF3341F462
:1008600080119A4201DA002010BD40F233439A42CF
:10087000A2F2334203DC5242FFF762FD10BD90400A
:1008800010BD000030B5041E71F1000404DB4FF010
:100890000044404264EB0101141E73F1000405DBC7
:1008A0001C464FF00043524263EB04038B4208BFE7
:1008B000824230BD30B5041E71F1000404DB4FF0FC
:1008C0000044404264EB0101141E73F1000405DB97
:1008D0001C464FF00043524263EB0403994208BFA9
:1008E000904230BD01F0004330B421F0004150EAA5
:1008F000010206D00A0DA2F56072C1F31301002AAD
:1009000002DC30BC00207047440F44EAC104C1003F
:10091000E01830BC00EBC25000F09CBA30B50B467A
:10092000014600202022012409E021FA02F59D421F
:1009300005D303FA02F5491B04FA02F52844151EF3
:10094000A2F10102F1DC30BD202A04DB203A00FADA
:1009500002F1002070479140C2F1200320FA03F316
:10096000194390407047202A06DBCB17203A41FA02
:1009700002F043EAE07306E041FA02F3D040C2F12C
:10098000200291400843194670473A2800D2303877
:1009900020F02002412A01D3A2F13700884201D37E
:1009A0004FF0FF30704700002DE9FF4F087883B00B
:1009B0009946FF2805D0491C2D2804D0002400208A
:1009C00008E000200BE00124F9E700EB800003EBD6
:1009D0004000491C0B78FF2BF7D104B140420023A3
:1009E0000293147819461D462D2C01D02B2C04D1CE
:1009F000521C2D2C13D000240294AA461478FF2CEC
:100A00000FD00A25A3FB057801FB05814FF0000CF0
:100A100003FB0C11521CE3194AEB0101EEE7012420
:100A2000EAE7814453EA010002D019F5C87F06DAEB
:100A300003980021C0E9001107B0BDE8F08F002540
:100A4000AE4E2F46DFF8B882184600F01DFBCDE908
:100A50000001B9F1000002DAC9F1000400E0044627
:100A60000023A74A1AEB030B42EB045A12E0E007FB
:100A700007D02A46334638464146FFF7BBFD0746B6
:100A800088462A46334610461946FFF7B3FD054609
:100A90000E466410002CEAD1DDE90001B9F1000F27
:100AA0005A46534606DAFFF717FE3A464346FFF723
:100AB00013FE05E0FFF79EFD3A464346FFF79AFD19
:100AC000029A0AB181F00041039AC2E90001B3E73A
:100AD0002DE9FF4F1F468DB0D7E901464FF0FF3893
:100AE0002E2045464FF000090B90B9696D1C0E98F9
:100AF0008847396A824688470028F6D1BAF1FF3F15
:100B00000AD024F4D064002E11DDBAF12B0F08D0E6
:100B1000BAF12D0F0BD102E0404611B08DE744F43D
:100B20008064B9696D1C0E9888478246761E6946B6
:100B3000600501D52D2000E02B208DF8000001F18B
:100B4000010B0DF1200809E0B9696D1C0E9888476A
:100B500082460F9844F40074761E0560002E02DD74
:100B6000BAF1300FF0D00B998A453ED144F08004A1
:100B700006E00F99681CA9F1010944F400740860AB
:100B8000B9696D1C761E0E98884782463028F0D0D1
:100B90002BE00B998A4505D1200603D444F080044C
:100BA000761E18E050462BF001FE08B30DF113013C
:100BB000761E44F400748B4508D2AAF130000BF87D
:100BC000010B200607D5A9F1010003E0200602D49D
:100BD00009F101008146A00502D50F99681C086043
:100BE000B9696D1C0E9888478246002ED1DC53E00F
:100BF000002E51DDBAF1650F02D0BAF1450F4BD18D
:100C0000A00549D5B9696D1C24F44074761E0E9870
:100C100088478246002E0CDD2B2804D0BAF12D0F18
:100C200007D144F48074B9696D1C0E9888478246D8
:100C3000761EE00501D52D2100E02B2108F8011BCF
:100C4000CDF82C8021E00DF12901761E44F40074CA
:100C500088450CD2AAF1300010F0FF0088F800009F
:100C600002D10B99884509D908F1010806E0E00591
:100C700001D5244801E042F20F708146B9696D1C2C
:100C80000E98884782460F980560002E04DD504676
:100C90002BF08CFD0028D6D1F9690E988847FF20EB
:100CA0008BF8000088F800000020069007904B4663
:100CB0006A4608A906A8FFF777FEA00502D46FF0E0
:100CC00001002AE714F0240F0AD0E00714D1DDE96F
:100CD00006123868031D3B600068C0E900120BE093
:100CE000DDE90601FFF7FEFD0146E00704D13868A3
:100CF000021D3A600068016028460EE700001440BB
:100D00000000F03FF1D8FFFF426842B1016811F8DE
:100D1000013B23B1521EC0E9001218467047012161
:100D2000C160881E704742685AB1C368016843B900
:100D300083688B4205D0491E521CC0E90012002076
:100D400070474FF0FF3070470FB4002300B589B0F3
:100D50000CA900910B996FF00042CB601E4B0693DB
:100D60001E4B07930423CDE901321D4A0892024627
:100D70006B460020FFF7ACFE09B05DF814FB70B5C0
:100D800086B006464FF0FF300091CDE9010100200A
:100D900015460C4604903246694604A8FFF7D4FF76
:100DA00002460498211825B108B1084600E0204603
:100DB0002860049800280DD0002A02DD009888429F
:100DC00008D0081B0094CDE901043246694604A806
:100DD000FFF7BAFF06B070BD090D0008270D000827
:100DE000D90F00082DE9F04791460F46804604468A
:100DF000002614F8015B2DB100F0EAF80068405DB0
:100E0000C007F6D12B2D02D02D2D18D0641E4A46D6
:100E10003946204600F0E9F827B13968A14201D1EE
:100E2000C7F8008071054FF002040BD5404200283E
:100E300003DD2BF081FB0460A007BDE8F08746F4DA
:100E40008066E4E70028F8DA2BF076FB04606FF0A8
:100E50000040F2E70029A8BF7047401C490008BFC6
:100E600020F00100704710B4B0FA80FC00FA0CF0DA
:100E700050EA010404BF10BC704749B1CCF1200412
:100E800021FA04F411FA0CF118BF0121214308439F
:100E9000A3EB0C01CB1D4FEA00614FEA102042BFCB
:100EA000002010BC704700EBC35010440029A4BFC1
:100EB00010BC7047401C490008BF20F0010010BC66
:100EC000704710B5141E73F1000408DA401C41F19C
:100ED000000192185B411A4301D120F0010010BDBE
:100EE0002DE9F04D92469B4611B1B1FA81F202E034
:100EF000B0FA80F220329046FFF726FD04460F46F6
:100F000040EA0A0041EA0B0153465A46084313D00F
:100F1000114653EA010019D0C8F140025046FFF7CC
:100F20000FFA05460E46504659464246FFF70CFD5D
:100F3000084305D0012004E020463946BDE8F08D85
:100F40000020054346EAE0762C4337430A986305C0
:100F5000E40AA0EB08000022FD0A44EA47540A30E4
:100F600002D500200146E9E7010510196941DDE9D4
:100F7000084500196941BDE8F04DA2E7C1F30A52E6
:100F8000C1F3130140F2FF3341F480119A4202DAB7
:100F900000200146704740F233439A42A2F23342A6
:100FA00002DC5242FFF7CCB9FFF7CEBC064C074D2E
:100FB00006E0E06840F0010394E807009847103429
:100FC000AC42F6D3FFF7E4F83C9004087C900408A8
:100FD00000487047BC12040810B50446FFF7F8FF3C
:100FE0000068005D00F0010010BD2DE9F05F824651
:100FF0000078002715468B460AF10104B9463028CF
:1010000001D09DB113E014F8010B0127782803D01B
:10101000582801D045B10AE00DB1102D07D10027A5
:10102000102514F8010B02E0082500E00A2500262F
:10103000B0460EE005FB080005FB06F1012701EBB9
:1010400010461FFA80F8B6F5803F00D3B94614F871
:10105000010B2946FFF799FC0028EBDABBF1000FE2
:1010600005D00FB1641E00E05446CBF80040B9F142
:10107000000F06D02BF060FA02210160C81EBDE807
:10108000F09F48EA0640FAE70EB540F2334202927A
:101090000022CDE900221346FFF722FF03B000BD76
:1010A00070B58C1810F8015B15F0070301D110F82A
:1010B000013B2A1106D110F8012B03E010F8016B57
:1010C00001F8016B5B1EF9D12B0705D40023521EDA
:1010D0000DD401F8013BFAE710F8013BCB1A921C42
:1010E00003E013F8015B01F8015B521EF9D5A14240
:1010F000D8D3002070BDFEE770B50546D0F898053E
:101100000426C46994F84E0003281AD0042820D17C
:10111000217B28462AF0DCF801281AD1217B2846B9
:101120002AF0C1F8A16A814214D0628B824211D2A6
:10113000091AA162216A08442062032084F84E0043
:101140000EE0237B628B2846216A29F08BF984F814
:101150004E6070BD002084F84E00284629F0A8FBA0
:10116000C5F8FC653146D5F8F405BDE870400022AD
:101170002DF002BFF8B50546D0F898050127C469DF
:1011800094F84D0001280ED002281AD1617B284620
:101190002AF09EF80426012814D0022811D100BF9D
:1011A00084F84D7020E0228B606A0097637B904248
:1011B00000D882B22846E16929F064F9022084F857
:1011C0004D00F8BD208B616A0022814206D9091AC0
:1011D0006162E3691844E061E2D100E0626284F890
:1011E0004D20284629F09FFBC5F8FC653146D5F80F
:1011F000F405BDE8F84000222DF0BEBE10B5002277
:101200004FEA020100EB8203521CC3F8A0150F2A1B
:10121000F8D300224FF400738418521C84F81C1178
:101220009A42F9D30170417001228270C0F8E01532
:10123000027640238371417680F81C1380F81D23C9
:1012400080F81F1380F81E13002010BD70470000A7
:101250000021074A12F81130834203D102EB41000A
:1012600040787047491C0B29F4D3012070470000D7
:10127000748603082DE9FF4FADF28C7D98461FF070
:101280007FFB0646002750210DF5E760FFF79BF82E
:10129000B946CDF82893CDF82C93CDF83093CDF8FE
:1012A0003493CDF81893CDF81C93CDF82093CDF856
:1012B0002493342113A8FFF786F820A809F05CF8DE
:1012C000C4A8FFF7E3F805460020724951F8202032
:1012D000AA4202D0401C0528F8D3052841D002209C
:1012E0008DF87C008DF829938DF82A038DF828035A
:1012F000CA218DF82B1303218DF82C138DF82D1393
:10130000FD228DF82E23CDF834930B02CDE9041283
:1013100040F2066140F60624CDE90010CDE9024313
:101320005D4B5EA203216CA019F06AFC16950DF5C9
:10133000E76113A819F0CAF850EA010215D0CDE907
:10134000020140F20F600090534B65A2002162A0A1
:1013500019F056FC4FF4807000210DF29C7DBDE821
:10136000F08F4FF480700021F7E700240DF5E9605D
:101370000DF54A7A0DF54E7BCDF88807ADF8304370
:10138000CDE910A940226846DDF88817FFF700F87C
:101390000DF5E7600FC819F0F1FA50EA01020AD022
:1013A000CDE9020140F2166000903B4B55A20021AE
:1013B00049A019F025FCC6A8CDE9100B40226846CB
:1013C000DDF88817FEF7E4FF0DF5E7600FC819F0A8
:1013D000E3F9084336D19DF81B039DF82C1388428E
:1013E00030D19DF81C039DF82B1388422AD19DF81B
:1013F0001903012826D19DF81D039DF82D1388425D
:1014000020D19DF81E039DF82E1388421AD19DF815
:10141000380304F075F888F8000070B1DDF88C0727
:101420000560DDF890079DF828130170DDF894073A
:101430009DF82B13017001270AE0B1684FF47A7010
:10144000884702E0B16814208847641C052C95DBAE
:1014500040226846DDF88817FEF79AFF0DF5E76031
:101460000FC818F055FF50EA01020AD0CDE9020179
:1014700040F232600090084B2CA2002116A019F017
:10148000BFFB17B10020014667E74FF480700021D1
:1014900063E70000088603080A8803085B25733A9F
:1014A000256429205472792028702C20732C2072F6
:1014B0002C206329203D202825642C2030782530DD
:1014C00034782C203078253034782C203078253032
:1014D0003278253032782900616461707465720059
:1014E0005B25733A25642920446A694C696E6B65F3
:1014F000725F496E69742C20737461743A256C6C48
:10150000640000005B25733A25642920446A694C15
:10151000696E6B65725F53656E644D73672C2073E3
:101520007461743A256C6C64000000005B25733AAA
:1015300025642920446A694C696E6B65725F446555
:10154000496E69742C20737461743A256C6C640064
:10155000024949780170002001467047403600205A
:101560000021074A12F83130834203D102EBC10057
:1015700040687047491C0B29F4D302A07047000053
:101580001C860308556E6B6E6F776E0001484068CD
:1015900070470000403600202DE9F04F8DB08046A6
:1015A0000F46164600251FF0CDF918B31FF0B8F905
:1015B00010B91FF0D3F948B11FF0B2F910B11FF004
:1015C000CDF928B11FF0ACF920B108E0012429E0E1
:1015D000022427E01FF0C2F908B1032422E040F200
:1015E0004D6000905C4B5DA2002163A019F008FBE8
:1015F000002417E01FF094F920B91FF0AFF908B1EB
:1016000005240FE01FF08CF910B11FF0A7F920B3EB
:1016100040F256600090504B50A2002156A019F0A5
:10162000EFFA002434700020554EC0EBC002B15CCC
:1016300041450DD191194978B94209D1012C0ED0FB
:10164000022C11D0032C14D0052C17D0042C1AD046
:10165000401C0F28E9D3DDB178E00424E2E7C0EBB9
:10166000C00188198578F6E7C0EBC0018819C578F4
:10167000F1E7C0EBC00188190579ECE7C0EBC001C8
:1016800088198579E7E7C0EBC00188194579E2E759
:10169000384600F0B5F881464046FFF761FF8246C4
:1016A000204600F08FF840F27B61CDE90010CDE9D3
:1016B00002A9294B33A201212FA019F0A1FA00247D
:1016C0002F49C4EBC4000A5C424536D146187078F5
:1016D000B84232D1307923F0A9F98146032000F0D5
:1016E00071F88246F07823F0A1F90C90022000F006
:1016F00069F80B90B07823F099F90646012000F0C4
:1017000061F80A90384600F07BF883464046FFF7C0
:1017100027FFDDE90B12CDE907A9CDE905120A99EA
:101720000190CDE902B140F28360009004960A4B2B
:10173000234A012110A019F063FA641C0F2CBFD3B7
:101740001FF01EF981684FF4FA7088470DB02846E3
:101750000021BDE8F08F0000428803085B25733A42
:10176000256429204572726F72206C696E6B20634C
:101770006F6E666967000000616461707465720075
:10178000DC8603085B25733A256429204E6F74209C
:10179000737570706F7274205B25735D206C696E59
:1017A0006B20636F6E666967206F6E205B25735DCB
:1017B00020616E64205B25735D2E0D0A0000000021
:1017C000B02204080021074A12F83130834203D1C5
:1017D00002EBC10040687047491C0529F4D302A000
:1017E00070470000B4860308556E6B6E6F776E000D
:1017F0000249897801700020014670474036002078
:101800000021074A12F83130834203D102EBC100B4
:1018100040687047491C0529F4D302A070470000B6
:101820008C860308556E6B6E6F776E0070B594B042
:10183000002610961196129613960C960D960E96FB
:101840000F96202104A8FEF7BEFD8DF8416002200E
:101850008DF842008DF84000CA208DF84300C32067
:101860008DF844008DF8456001208DF84600FFF7A3
:101870008DFE03214FF4FA721E2304ACCDE9022140
:10188000CDE900430CAB002210A908F0A7F90446EB
:101890000D469DF8100058B13546044640F2B2613D
:1018A000CDE90010044B05A2002110A019F0A8F901
:1018B00014B02046294670BD658803085B25733A3D
:1018C000256429204661696C656420746F20676512
:1018D000742076657273696F6E2C206572726F72F8
:1018E00020636F64652025640000000061646170FE
:1018F000746572002DE9FF4FADF2045D9B46DDF883
:1019000038551FF03DF807464FF0000950210DF5FE
:101910009560FEF758FD002026902790289029908A
:10192000229023902490259021908DF850001EF055
:10193000F7FF0DF59761CDF8001510B11FF00EF807
:1019400020B11EF0EDFF002879D0D8E100201390DF
:101950000DF59F621BA916A803C2FE48139900EB60
:101960000114E06800286BD020788DF880004FF0DB
:10197000000C8DF899C002218DF89A108DF898000E
:1019800061788DF89B10A2788DF89C20E3788DF813
:101990009D3026798DF89E60CDF8A4C04FEAC26CC8
:1019A0004FEADC4C4CEA52124FEAC16C4FEADC4C75
:1019B0004CEA5111CDE90212CDE904364FF48E61A3
:1019C000CDE90010E44BE5A20321F3A019F018F9CA
:1019D0004FF000080EE11EF0A3FF824602208DF8B2
:1019E0005400E06808EBC806102101EB8601405A5C
:1019F0001A90E068222101EB8601405A1F90E068AE
:101A000000EB8601DDF8F804FEF728FD1221E068FE
:101A100001EB86010144DDF8FC04FEF71FFDDAF856
:101A200000300022DEA1DDF8F804984750EA0102F8
:101A30000DD0CDE9020140F28140C74B01E0E7E063
:101A4000DCE00090D9A20021D3A019F0D9F80DF55F
:101A5000956114A818F03AFD50EA01020AD0CDE9C8
:101A6000020140F286400090BB4BD8A20021CAA0E0
:101A700019F0C6F80026ADF8A060002026A9CDE92F
:101A8000101040226846DDF80015FEF781FC0DF5C8
:101A900095600FC818F072FF50EA01020AD0CDE934
:101AA000020140F28E400090AB4BD1A20021BAA0BF
:101AB00019F0A6F8B968142088470DF1A80A22A8E1
:101AC000CDE9100A40226846DDF80015FEF760FCFB
:101AD0000DF595600FC818F05FFE084362D19DF8C0
:101AE0008B009DF89C1088425CD19DF88C009DF87D
:101AF0009B10884256D19DF88900012852D19DF84B
:101B00008D009DF89D1088424CD19DF88E009DF867
:101B10009E10884246D10AF1020A40F29C40CDE96B
:101B2000000A8D4BBCA203219BA019F069F8504616
:101B300003F0CCFC8BF8000038B3DDF808059DF805
:101B400098100170DDF80C059DF89B1001709DF850
:101B5000980028709DF89B0068709BF80000A870A2
:101B6000022028711A98A8611F98E86205F1080000
:101B7000DDF8F814FEF772FC05F11C00DDF8FC142A
:101B8000FEF76CFC4FF0010910E04FF494600090F8
:101B9000714BA8A2012180A019F032F8B9684FF466
:101BA0007A708847761C052EFFF665AF402268469E
:101BB000DDF80015FEF7ECFB0DF595600FC818F089
:101BC000A7FB50EA01020AD0CDE9020140F2B7407A
:101BD0000090614B9FA200216FA019F011F8B9F19C
:101BE000000F05D0002001460DF2145DBDE8F08F16
:101BF00008F10108A06840453FF7EDAE1398401C7E
:101C0000139013980228FFF4A8AEEC200021EBE714
:101C10001EF0A4FE002872D001208DF8540000258B
:101C20008DF8585042F6A341ADF85A104FF2010119
:101C3000ADF85C10ADF85E508121ADF86010ADF8E4
:101C4000620002218DF880108DF899508DF89A105D
:101C50008DF8981065228DF89B2028228DF89C2005
:101C60008DF89D508DF89E00299502AC40F6010339
:101C700040F203522CC4059040F2DA40CDE9000155
:101C8000354B36A2032144A018F0BAFF0DF595613B
:101C900014A818F01BFC50EA01020AD0CDE9020199
:101CA00040F2E24000902C4B48A200213AA018F0EC
:101CB000A7FF002426AE0DF1880A2AADADF8A0409A
:101CC0000020CDE9106040226846DDF80015FEF7DF
:101CD0005FFB0DF595600FC818F050FECDE910A51B
:101CE00040226846DDF80015FEF752FB0DF59560C1
:101CF0000FC818F051FD08430DD0FBE0FFE740F29C
:101D0000CB400090144B5CA2002123A018F078FF78
:101D1000EC20002168E79DF88B009DF89C1088421C
:101D200016D19DF88C009DF89B10884210D19DF82B
:101D3000890001280CD19DF88D009DF89D108842E6
:101D400006D19DF88E009DF89E10884200D1ABE030
:101D5000D0E00000E8850308A78703085B25733AF5
:101D6000256429205472792028702C20732C20722D
:101D70002C206329203D202825642C203078253014
:101D800034782C203078253034782C203078253069
:101D90003278253032782900616461707465720090
:101DA0003235352E3235352E302E30005B25733AE4
:101DB000256429206E6574776F726B20696E697473
:101DC000206572726F723A256C6C64005B25733A01
:101DD00025642920446A694C696E6B65725F496E9F
:101DE00069742C20737461743A256C6C6400000073
:101DF0005B25733A25642920446A694C696E6B65DA
:101E0000725F53656E644D73672C20737461743A0E
:101E1000256C6C64000000005B25733A2564292062
:101E20004169726372616674207365726965733AA1
:101E3000202573005B25733A25642920556E6B6E4F
:101E40006F7720616972637261667420736572696D
:101E500065732E005B25733A25642920446A694C1A
:101E6000696E6B65725F4465496E69742C2073748A
:101E700061743A256C6C64005B25733A25642920F3
:101E80004E6574776F726B20616E64207573626249
:101E9000756C6B206C696E6B20636F6E6669672072
:101EA0006572726F722E000005F102088D4B40F2D0
:101EB000F740AFF29C02CDE900080321AFF22810F1
:101EC00018F09EFE404603F001FB8BF8000060B165
:101ED000DDF808059DF898100170DDF80C059DF8F7
:101EE0009B1001704FF001090CE0B9684FF47A7053
:101EF000884702E0B96814208847641CB4F5FA7F6B
:101F0000FFF6DCAE40226846DDF80015FEF740FA29
:101F10000DF595600FC818F0FBF950EA01020CD0DE
:101F2000CDE902016F4B40F20B50AFF2D802002115
:101F30000090AFF29C1018F063FEB9F1000F02D0D0
:101F40000020014650E602208DF880004FF0000886
:101F50008DF899808DF89A008DF8980065218DF89C
:101F60009B1027218DF89C108DF89D8001218DF804
:101F70009E10CDF8A48040F20173CDE9033840F201
:101F800003520591574B029240F21C51AFF234229A
:101F9000CDE900100321AFF2002018F031FE0DF55D
:101FA000956114A818F092FA50EA01020CD0CDE91C
:101FB00002014C4B40F22450AFF2F012002100908D
:101FC000AFF22C2018F01CFE0024ADF8A040002039
:101FD000CDE9106040226846DDF80015FEF7D8F91B
:101FE0000DF595600FC818F0C9FCCDE910A5402289
:101FF0006846DDF80015FEF7CBF90DF595600FC8C2
:1020000018F0CAFB084341D19DF88B009DF89C1045
:1020100088423BD19DF88C009DF89B10884235D1B9
:102020009DF88900012831D19DF88D009DF89D1003
:1020300088422BD19DF88E009DF89E10884225D1B4
:1020400005F10208274B40F23950AFF23422CDE9B6
:1020500000080321AFF2C02018F0D2FD404603F083
:1020600035FA8BF8000060B1DDF808059DF898108E
:102070000170DDF80C059DF89B1001704FF001090F
:102080000BE0B9684FF47A70884702E0B968142011
:102090008847641CB4F5FA7F97DB40226846DDF878
:1020A0000015FEF775F90DF595600FC818F030F9B9
:1020B00050EA01020CD0CDE902010A4B40F24D502A
:1020C000AFF2702200210090AFF2343018F098FD8A
:1020D000B9F1000F02D00020014685E54FF4807071
:1020E000002181E5A78703082DE9FF4FADF2445D8C
:1020F00082468B4698461EF043FC06460027502138
:102100000DF2EC40FEF75FF9B946CDF8DC90CDF862
:10211000E090CDF8E490CDF8E890CDF8CC90CDF8F3
:10212000D090CDF8D490CDF8D890CDF8C890342187
:1021300013A8FEF748F9434659465046DDF84C25AA
:10214000FFF798F804460D462C434AD002208DF83C
:102150007C0000238DF8DD308DF8DE008DF8DC008A
:10216000E5218DF8DF1065218DF8E01003228DF850
:10217000E120FD218DF8E2103A93CDE9042140F2EF
:10218000035340F2C5211C1DCDE90010CDE90243E7
:10219000EF4BF0A20321FEA018F032FD0020CDF895
:1021A0003C050DF2FC40CDF84005FB48DDF83C1540
:1021B00050F8210016900DF2EC4113A818F086F9A2
:1021C00004460D4654EA050011D040F2CF2000909D
:1021D000DF4BF2A20021CDE90245EDA018F010FD81
:1021E0009DE0002001460DF2545DBDE8F08F4FF0F8
:1021F0000009ADF8E490002037A9CDE91010402285
:102200006846DDF84015FEF7C3F80DF2EC400FC844
:1022100018F0B4FB0D46044654EA05000AD040F21B
:10222000D6200090CA4BE6A20021CDE90245D8A0F5
:1022300018F0E6FC3BA833A9CDE91010402268460F
:10224000DDF84015FEF7A4F80DF2EC400FC818F0C9
:10225000A3FA04460D4654EA050039D19DF8CF0093
:102260009DF8E010884233D19DF8D0009DF8DF1032
:1022700088422DD19DF8CD00012829D19DF8D100AB
:102280009DF8E110884223D19DF8D2009DF8E2101C
:1022900088421DD19DF8EC0003F032F988F8000067
:1022A00088B1BD48DDF83C1550F82100CAF800009F
:1022B0009DF8DC008BF80000DDF84C059DF8DF1080
:1022C000017001270CE0B1684FF47A70884702E092
:1022D000B1681420884709F10109B9F1050F88DBBD
:1022E00040226846DDF84015FEF752F80DF2EC404A
:1022F0000FC818F00DF804460D4654EA05000AD040
:1023000040F2F1200090924BB7A20021CDE90245A6
:102310009FA018F075FC17B10020014663E7DDF8B7
:102320003C05401CCDF83C05DDF83C050528FFF4D4
:102330003CAF02208DF87C0000238DF8DD308DF855
:10234000DE008DF8DC00CA218DF8DF1003218DF846
:10235000E0108DF8E110FD228DF8E2203A930B0297
:10236000CDE90412191D40F60624CDE90010CDE98F
:102370000243774B77A2032185A018F041FC00208F
:10238000CDF83C058448DDF83C1550F82100169046
:102390000DF2EC4113A818F099F80D46044654EAE2
:1023A00005000BD040F20E300090694B7BA200215B
:1023B000CDE9024576A018F023FC97E04FF0000924
:1023C000ADF8E490002037A9CDE91010402268460E
:1023D000DDF84015FDF7DCFF0DF2EC400FC818F0FA
:1023E000CDFA04460D4654EA05000AD040F21530F5
:1023F0000090574B72A20021CDE9024564A018F06D
:10240000FFFB3BA833A9CDE9101040226846DDF858
:102410004015FDF7BDFF0DF2EC400FC818F0BCF9F8
:102420000D46044654EA050039D19DF8CF009DF8C9
:10243000E010884233D19DF8D0009DF8DF1088422B
:102440002DD19DF8CD00012829D19DF8D1009DF80E
:10245000E110884223D19DF8D2009DF8E210884215
:102460001DD19DF8EC0003F04BF888F8000088B10E
:102470004948DDF83C1550F82100CAF800009DF8E5
:10248000DC008BF80000DDF84C059DF8DF100170D2
:1024900001270CE0B1684FF47A70884702E0B16818
:1024A0001420884709F10109B9F1050F88DB4022A2
:1024B0006846DDF84015FDF76BFF0DF2EC400FC8E4
:1024C00017F026FF0D46044654EA05000AD040F2F4
:1024D000313000901E4B44A20021CDE902452CA0D2
:1024E00018F08EFB17B1002001467CE6DDF83C05B4
:1024F000401CCDF83C05DDF83C050528FFF442AF53
:1025000002208DF87C0000218DF8DD108DF8DE00B2
:102510008DF8DC0065228DF8DF2028228DF8E02080
:102520008DF8E11001228DF8E2203A91CDE90412F4
:102530004FF4517140F6010440F20353CDE900100D
:10254000CDE90234024B03A2032111A05EE000009A
:10255000738703085B25733A256429205472792018
:1025600028702C20732C20722C206329203D2028D9
:1025700025642C203078253034782C203078253094
:1025800034782C2030782530327825303278290084
:102590006164617074657200088603085B25733A94
:1025A00025642920446A694C696E6B65725F496EC7
:1025B00069742C20737461743A256C6C640000009B
:1025C0005B25733A25642920446A694C696E6B6502
:1025D000725F53656E644D73672C20737461743A37
:1025E000256C6C64000000005B25733A256429208B
:1025F000446A694C696E6B65725F4465496E6974C3
:102600002C20737461743A256C6C640018F0F8FA2D
:102610000020CDF83C05FE48DDF83C1550F82100BF
:1026200016900DF2EC4113A817F050FF04460D462A
:1026300054EA05000DD0F74B40F24E30AFF2A40241
:102640000021CDE902450090AFF2BC0018F0D8FAA5
:10265000A8E04FF00009ADF8E490002037A9CDE9DB
:10266000101040226846DDF84015FDF791FE0DF28E
:10267000EC400FC818F082F90D46044654EA0500F4
:102680000CD0E44B40F25530AFF2CC020021CDE942
:1026900002450090AFF2081018F0B2FA3BA833A937
:1026A000CDE9101040226846DDF84015FDF770FEB8
:1026B0000DF2EC400FC818F06FF804460D4654EACE
:1026C000050045D19DF8CF009DF8E01088423FD12C
:1026D0009DF8D0009DF8DF10884239D19DF8CD00DB
:1026E000012835D19DF8D1009DF8E11088422FD105
:1026F0009DF8D2009DF8E210884229D10DF1EE0438
:102700004FF45870CDE90004C24BC3A20321AFF2CD
:10271000801018F075FA204602F0D8FE88F8000004
:1027200088B1BB48DDF83C1550F82100CAF800001C
:102730009DF8DC008BF80000DDF84C059DF8DF10FB
:10274000017001270DE0B1684FF47A70884702E00C
:10275000B1681420884709F10109B9F1050FFFF6A6
:102760007AAF40226846DDF84015FDF711FE0DF204
:10277000EC400FC817F0CCFD04460D4654EA0500A6
:102780000CD0A44B4FF45D70AFF2A4120021CDE940
:1027900002450090AFF2082018F032FA17B100207D
:1027A000014620E5DDF83C05401CCDF83C05DDF890
:1027B0003C050528FFF42FAF02208DF87C00002196
:1027C0008DF8DD108DF8DE008DF8DC0065228DF8C7
:1027D000DF2027228DF8E0208DF8E11001228DF80E
:1027E000E2203A9140F2017440F20353CDE9023401
:1027F000CDE90412874B40F28731AFF2A822CDE930
:1028000000100321AFF2782018F0FAF90020CDF87B
:102810003C057F48DDF83C1550F8210016900DF27C
:10282000EC4113A817F052FE0D46044654EA050089
:102830000DD0784B40F29130AFF2A0220021CDE9CB
:1028400002450090AFF2B82018F0DAF9A8E04FF096
:102850000009ADF8E490002037A9CDE9101040221E
:102860006846DDF84015FDF793FD0DF2EC400FC80A
:1028700018F084F80D46044654EA05000CD0654B68
:102880004FF46670AFF2C8220021CDE902450090F6
:10289000AFF2043018F0B4F93BA833A9CDE9101019
:1028A00040226846DDF84015FDF772FD0DF2EC4060
:1028B0000FC817F071FF04460D4654EA050045D1D4
:1028C0009DF8CF009DF8E01088423FD19DF8D000E0
:1028D0009DF8DF10884239D19DF8CD00012835D10F
:1028E0009DF8D1009DF8E11088422FD19DF8D200CB
:1028F0009DF8E210884229D10DF1EE0440F2A33098
:10290000CDE90004434B44A20321AFF27C3018F020
:1029100077F9204602F0DAFD88F8000088B13C48DB
:10292000DDF83C1550F82100CAF800009DF8DC00E5
:102930008BF80000DDF84C059DF8DF1001700127D1
:102940000DE0B1684FF47A70884702E0B168142056
:10295000884709F10109B9F1050FFFF67AAF402266
:102960006846DDF84015FDF713FD0DF2EC400FC889
:1029700017F0CEFC0D46044654EA05000CD0254B5A
:1029800040F2B730AFF2A0320021CDE9024500900D
:10299000AFF2044018F034F917B10020014622E4E8
:1029A000DDF83C05401CCDF83C05DDF83C0505286C
:1029B000FFF42FAF02208DF87C0000238DF8DD306E
:1029C0008DF8DE008DF8DC00EA218DF8DF100321A0
:1029D0008DF8E0108DF8E110FD228DF8E2203A9399
:1029E0000B0240F60724CDE90243CDE90412094B5E
:1029F00040F2CA31AFF2A442CDE900100321AFF298
:102A0000704018F0FDF80020CDF83C05004811E0BA
:102A100008860308738703085B25733A2564292019
:102A20004169726372616674207365726965733A95
:102A300020257300DDF83C1550F8210016900DF2AA
:102A4000EC4113A817F042FD04460D4654EA050078
:102A50000DD0E24B4FF47570AFF2C0420021CDE9CA
:102A600002450090AFF2D84018F0CAF8A6E04FF047
:102A70000009ADF8E490002037A9CDE910104022FC
:102A80006846DDF84015FDF783FC0DF2EC400FC8F9
:102A900017F074FF0D46044654EA05000CD0CF4BE6
:102AA00040F2DB30AFF2E8420021CDE90245009070
:102AB000AFF2245018F0A4F83BA833A9CDE91010C8
:102AC00040226846DDF84015FDF762FC0DF2EC404F
:102AD0000FC817F061FE04460D4654EA050043D1C5
:102AE0009DF8CF009DF8E01088423DD19DF8D000C0
:102AF0009DF8DF10884237D19DF8CD00012833D1F1
:102B00009DF8D1009DF8E11088422DD19DF8D200AA
:102B10009DF8E210884227D19DF8EC0002F0F0FC0D
:102B200088F80000D8B198F80000012825D00228C4
:102B300023D0032821D005281FD0A948DDF83C1553
:102B400050F82100CAF800009DF8DC008BF8000066
:102B5000DDF84C059DF8DF10017001270DE0B1682C
:102B60004FF47A70884702E0B1681420884709F171
:102B70000109B9F1050FFFF67CAF40226846DDF888
:102B80004015FDF705FC0DF2EC400FC817F0C0FB37
:102B900004460D4654EA05000CD0904B40F2FF303D
:102BA000AFF2BC520021CDE902450090AFF22060A7
:102BB00018F026F817B10020014696E4DDF83C0530
:102BC000401CCDF83C05DDF83C050528FFF41EAFA0
:102BD00001218DF87C1000208DF8DD0002228DF897
:102BE000DE208DF8DC100A228DF8DF2003228DF81C
:102BF000E0208DF8E1008DF8E2003A911202CDE973
:102C000003204FF4206302930590744B40F212406E
:102C1000AFF2C062CDE900010321AFF28C6017F082
:102C2000EFFF0020CDF83C056D48DDF83C1550F86D
:102C3000210016900DF2EC4113A817F047FC044652
:102C40000D4654EA05000DD0644B40F21C40AFF233
:102C5000B4620021CDE902450090AFF2CC6017F0DC
:102C6000CFFFADE04FF00009ADF8E49032A837A9EE
:102C7000CDE9101040226846DDF84015FDF788FBCD
:102C80000DF2EC400FC817F079FE04460D4654EAE9
:102C900005000CD0514B40F22440AFF2DC62002121
:102CA000CDE902450090AFF2187017F0A9FF3BA8DC
:102CB00033A9CDE9101040226846DDF84015FDF734
:102CC00067FB0DF2EC400FC817F066FD04460D4699
:102CD00054EA05004AD19DF8CD00012846D19DF85F
:102CE000CF009DF8E010884240D19DF8D0009DF8BB
:102CF000DF1088423AD19DF8D1009DF8E11088425A
:102D000034D19DF8D2009DF8E21088422ED120A93E
:102D10003BA820F063FD04460D4654EA05000ED0A2
:102D200040F22F402D4B2FA20021CDE9024500900B
:102D3000AFF2A47017F064FF2046294631E526A8BB
:102D400002F0AEFB88F800002548DDF83C1550F88D
:102D50002100CAF800009DF8DC008BF80000DDF8C7
:102D60004C059DF8DF100170012708E0B1681420C0
:102D7000884709F10109B9F1050FFFF675AF402247
:102D80006846DDF84015FDF703FB0DF2EC400FC877
:102D900017F0BEFA0D46044654EA05000CD00F4B5E
:102DA00040F23E40AFF2C0720021CDE902450090F2
:102DB000AFF6240017F024FF17B100200146F0E41D
:102DC000DDF83C05401CCDF83C05DDF83C05052848
:102DD000FFF42AAF4FF480700021E2E47387030808
:102DE000088603085B25733A2564292050617273B5
:102DF000652073646B2076657273696F6E41636BD7
:102E0000206572726F722C2072657475726E436FDA
:102E10006465203D20256C6C640000002DE9F14FB5
:102E2000ECB04FF00008CDF89C814FF4827126A8D9
:102E3000FDF7C9FA142121A8FDF7C5FA002020905A
:102E4000CDF86080CDF86480CDF86880CDF86C80D6
:102E5000CDF85080CDF85480CDF85880CDF85C8006
:102E6000CDF84C80CDF848800026CDF84480CDF8D0
:102E70004080302104A8FDF7A6FADFF8F0A3CAF8D5
:102E800004808AF801808AF802804FF0020B4FF02C
:102E900001096C9F1DF056FD00287AD068A900201A
:102EA00000F072FD04460D4654EA05000FD040F2D2
:102EB00003100090EE4BEFA20021CDE90245FCA0EB
:102EC00017F09EFEEC2000216DB0BDE8F08F9DF85C
:102ED000A00100285DD140F207100090E44BF64AB3
:102EE0000021F3A017F08CFEEC200021ECE7DF4B73
:102EF00012AA5B1C6AA96BA8FFF7F6F804460D46F8
:102F000054EA05004AD040F215100090D84BEB4A25
:102F10000221E7A017F074FE761CB6B2142E33D946
:102F20004FF48D700090D24BE54A0021E0A017F0DD
:102F300067FEE1200021C7E704A8CC4B00905B1C92
:102F400012AA6AA911A8FEF7D5FC0D46044654EA58
:102F5000050023D04FF493700090C54BD94A02214D
:102F6000D3A017F04DFE761CB6B2142E0CD940F249
:102F70002B100090BE4BD44A0021CDA017F040FE8C
:102F8000E1200021A0E704E01DF0FAFC8168322076
:102F900088471DF0D7FC0028CED0A8E79AF801009A
:102FA000D0B1FEF7DDFA40F23911CDE90010B04B97
:102FB000C6A20221BEA017F023FE9AF80100012844
:102FC00016D09DF8A81101293DD003283BD0042834
:102FD00039D006281ED021E04FF49E700090A44BFB
:102FE000C44A0021B2A017F00BFEFF2000216BE7BE
:102FF0004FF4A17000909E4BBF4A0021BFA017F074
:10300000FFFD1DF0BDFC81684FF4FA608847E020A9
:10301000002159E79DF84820CA2A14D0082803D176
:103020009DF84820CA2A0ED0092803D19DF84820CF
:10303000CA2A08D0052803D19DF84820CA2A02D000
:10304000062803D006E08AF802B029E09DF848205F
:10305000EA2A06D0072808D0082806D0092804D074
:1030600007E003208AF802001AE09DF84800EA28E9
:1030700002D0022904D007E003208AF802000FE002
:103080009DF84800E52802D0022903D006E08AF81E
:10309000029005E09DF8480065281BD08AF8028060
:1030A0009AF80200D0B1FEF7ABFB4FF4B071CDE956
:1030B00000106F4B93A202217DA017F0A1FD10AA72
:1030C0009AF802109AF80100FEF766FA084311D048
:1030D000012010E004208AF80200E1E740F26310CA
:1030E0000090634B924A002171A017F089FDFF20E8
:1030F0000021E9E60020A8B19DF8A801022814D01B
:1031000001284FD09DF8A8014FF4D471CDE90010EB
:10311000574B88A2002166A017F072FD4FF4807013
:103120000021D1E6E3200021CEE601248DF898802D
:103130009DF8401005290AD004291ED08DF8C8003A
:103140008DF89C806B9829908DF8A08079E08DF89F
:10315000C8008DF89C908DF8A08042F6A340ADF891
:10316000A2004FF20100ADF8A400ADF8A6808120C6
:10317000ADF8A800ADF8AA9063E09DF810008DF8B6
:10318000C8009DF814008DF89C000A982C900F98A8
:10319000319006A928A8FDF761F90BA92DA8FDF724
:1031A0005DF94EE08DF898808DF8C8008DF89C8010
:1031B0006B9829908DF8A0801DF0C4FBC0B11DF064
:1031C000C1FB026967A90120904704460D4654EAF5
:1031D00005000DD04FF4C9700090254B63A200216B
:1031E000CDE9024532A017F00BFDEC2000216BE683
:1031F0009DF89C01012801D0012422E069A9012049
:1032000000F0C2FB0D46044654EA05000DD04FF411
:10321000CD700090164B17A20021CDE9024524A0E5
:1032200017F0EEFCEC2000214EE68DF8CC908DF8E6
:10323000FCB08DF8D0804FF4612036908DF8D4909A
:10324000022426A81E90ADF87C40084800221EA942
:10325000001D05F013FB04460D4654EA050003D09B
:103260004FF4D870024B9BE0A6E0000040360020EF
:10327000458703085B25733A25642920446A694120
:103280006363657373416461707465725F497355FC
:10329000617274436F6E6E6563742C207265747511
:1032A000726E436F6465203D20256C6C64000000E5
:1032B0006164617074657200DC25040808270408E5
:1032C0008827040808280408A02804085B25733A06
:1032D000256429204964656E746966792061697284
:1032E0006372616674207365726965732069732007
:1032F000257300007C2A0408C0230408636F7265EC
:10330000000000005B25733A256429204964656E3E
:1033100074696679206D6F756E7420706F7369744F
:10332000696F6E20747970652069732025730000C1
:10333000182A04085B25733A256429204E6F7420EF
:10334000737570706F72742070726F746F636F6CCE
:103350002074797065206F6E2055415254302C20B6
:1033600074797065203D2025640000005B25733A68
:103370002564292047657420756172742073746117
:10338000747573206572726F722C20726574757219
:103390006E436F6465203D20256C6C640000000066
:1033A000FCA20021CDE902450090AFF2FC0017F02D
:1033B00027FC2046294687E5B7F5E13F18D0B7F549
:1033C000613F15D0B7F5E12F12D0B7F5612F0FD0BF
:1033D000FD4887420CD040F2B910FC4BFC4A00215A
:1033E0000090AFF2341017F00BFCE32000216BE5E6
:1033F0001DF0A8FAC8B19AF80100FDF729FF40B105
:103400006B98874205D09AF80210022936D003291A
:1034100034D06B9840F2DB11CDE90010EB4BEDA2FC
:103420000221AFF2741017F0EBFB8DF84E909AF872
:1034300001008DF84C009AF802008DF84D008DF8CF
:103440004F9013A9DAF804001BF00AF80D46044661
:1034500054EA050075D09AF80100032865D04FF4AE
:10346000F670DA4BE6A20021CDE902450090AFF2FA
:10347000C01017F0C5FB2046294625E5CDE9010718
:103480004FF4E271D14B0091EAA20221AFF2E010B9
:1034900017F0B6FB9AF80100022804D0072802D0E2
:1034A000032815D028E0384600F08AFA04460D4675
:1034B00054EA050020D04FF4E570C44BEAA2002185
:1034C000CDE902450090AFF2182017F099FB13E008
:1034D000384600F0DBFA04460D4654EA05000BD0EE
:1034E00040F2CF10B94BE0A20021CDE90245009097
:1034F000AFF2442017F084FBDAF8040004F07EFEFB
:103500000D46044654EA05003FF4C4AC40F2D51021
:10351000AE4BE1A20021CDE902450090AFF2702050
:1035200017F06EFB20462946CEE44FF4F470A74B0B
:10353000E54A00210090AFF2882017F061FB9AE77E
:10354000FFE79DF8A801022811D0012879D09F4BF0
:103550004FF40F71AFF22422CDE900100021AFF239
:10356000B02017F04DFB4FF480700021ACE41DF04B
:103570001BFA01248DF898801DF0E4F948B19DF8FC
:10358000A8018DF8C8008DF89C806B9829908DF863
:10359000A0801DF0D7F9002851D01DF0C1F90028F6
:1035A000FAD018A81AF084FE0D46044654EA050025
:1035B0000ED040F20220854BC4A20021CDE9024585
:1035C0000090AFF2143017F01BFB204629467BE435
:1035D00014A81AF0E7FD0D46044654EA05000ED083
:1035E0004FF40270794BB9A20021CDE90245009059
:1035F000AFF2443017F004FB2046294664E48DF80E
:10360000CC909DF8A8018DF8FC008DF8D0B018A9D9
:103610003AA8FCF723FF14A935A8FCF71FFF45F6CD
:10362000DC103E9039908DF887B08DF8848027208B
:103630008DF885008DF8869001202090022453E0BB
:10364000FFE78DF898808DF8C8008DF89C806B9806
:1036500029908DF8A0801DF075F9D0B11DF072F998
:10366000026967A9012090470D46044654EA050007
:103670000FD0564B40F22620AFF210320021CDE998
:1036800002450090AFF2D83017F0BAFAEC200021D2
:103690001AE49DF89C01012801D0012424E069A9C5
:1036A000012000F071F904460D4654EA05000FD0E0
:1036B000464B40F22E20AFF244420021CDE90245B4
:1036C0000090AFF2144017F09BFAEC2000210DE4BB
:1036D0008DF8CC908DF8FCB08DF8D0804FF461203F
:1036E00036908DF8D490022426A81E90ADF87C4028
:1036F0009AF80100032834D05146052802D1897870
:1037000002292ED004282CD006282AD0082828D018
:10371000092826D00A2824D021A81C902098ADF88A
:1037200074009DF84000052820D004281ED01CAA53
:103730001EA9DAF8040006F037FC0D46044654EAE8
:1037400005001DD040F25620204B12A20021CDE9E9
:1037500002450090AFF2A84017F052FA20462946E1
:1037600010E4CDF87080ADF87480DAE740F25220B2
:10377000164B644A02210090AFF2CC4017F040FA99
:103780009AF80100042804D1FEF750F804460D46CB
:10379000BAE0CBE05B25733A25642920446A69438B
:1037A0006F6D6D616E645F496E6974206572726FD2
:1037B000722C2072657475726E436F6465203D20B3
:1037C000256C6C640000000040420F004587030830
:1037D000D42404085B25733A256429204964656E66
:1037E00074697479207561727430206261756472D5
:1037F0006174652069732025642062707300000085
:103800005B25733A256429205061796C6F616420CF
:103810006E65676F7469617465206572726F722C72
:103820002072657475726E436F6465203D20256C4F
:103830006C6400005B25733A256429204E6F772065
:103840006175746F207265636F6E66696775726506
:103850002062617564726174652066726F6D2025E7
:103860006420746F202564005B25733A2564292049
:10387000536574206261756420726174652065729D
:10388000726F722C2072657475726E436F6465205E
:103890003D20256C6C6400005B25733A256429206B
:1038A000436F6D6D616E64206465696E6974206537
:1038B00072726F722C2072657475726E436F6465DC
:1038C000203D20256C6C6400102304085B25733AAE
:1038D000256429204765742072656D6F74652069C1
:1038E000702061646472657373206572726F722CEC
:1038F0002072657475726E436F6465203D20256C7F
:103900006C6400008425040854EA05000ED040F2DF
:103910006120094B09A20021CDE902450090AFF2D8
:10392000706017F06DF92046294660E48AF800902F
:10393000002001465BE40000458703085B25733ADD
:10394000256429204661696C6520746F2068616E6A
:10395000647368616B65207769746820616972635C
:1039600072616674204D332E204572726F7220632F
:103970006F646520307825303858000001480078A1
:10398000704700004036002038B505460C461CF054
:10399000D9FF03686A464FF4E1312846984750EA58
:1039A000010202D00022227038BD1CF0CBFF41681A
:1039B00000988847012020700020014638BD000093
:1039C00030B58BB000240A940494059406940794AF
:1039D0001D490891099001258DF810500A208DF895
:1039E000130003208DF81400FDF7D0FD04F0EEFE67
:1039F000ADF818008DF8114002208DF812008DF8F6
:103A0000155042208DF8160008200790FDF7BEFDE6
:103A100008AA04A905F006FC04460D4654EA050070
:103A20000ED040F27E500090084B09A20021CDE953
:103A3000024514A017F0E4F8204629460BB030BD2B
:103A400000200146FAE70000E38F4C8ECF87030881
:103A50005B25733A25642920577269746520666373
:103A600020706172616D2073656E642073796E637E
:103A7000206572726F723A30782530386C6C582E2F
:103A800000000000616461707465720030B593B02D
:103A9000054600240F941094119412940B940C94E6
:103AA0000D940E94142106A8FCF78DFC0594CDF816
:103AB00019508DF8184002258DF83C50CA208DF819
:103AC0003F0028208DF84000FDF760FD04F07EFEE9
:103AD000ADF844008DF83D408DF83E503C208DF807
:103AE000410014208DF8420011201290FDF74EFD88
:103AF00001214FF47A7205ABCDE90031CDE9022105
:103B00000BAB06AA0FA906F069F804460D4654EA65
:103B100005000ED04FF4B46000900F4B0FA20021AF
:103B2000CDE9024518A017F06BF82046294613B0DE
:103B300030BD9DF8140060B140F2A551CDE90010F0
:103B4000054B13A2002110A017F05AF8FF20002106
:103B5000EDE700200146EAE7EC8703085B25733AAE
:103B60002564292053657420636F6D6D2070617228
:103B7000616D2073796E63206572726F723A30786E
:103B80002530386C6C582E00616461707465720069
:103B90005B25733A2564292053657420636F6D6D2E
:103BA00020706172616D2061636B20636F646520BA
:103BB0006572726F723A30782530386C6C582E000E
:103BC000F0B58DB00746002609960A960B960C961E
:103BD00003A800F0C3FA04460D462C430BD04E2038
:103BE0000090264B26A2022131A017F009F8E3200D
:103BF00000210DB0F0BD01208DF824000A208DF8C1
:103C000027009DF821008DF82800FDF7BFFC04F087
:103C1000DDFDADF82C008DF8256002208DF8260022
:103C20008DF82960FC208DF82A000E200C90FDF7FD
:103C3000ADFC4FF47A71CDE900711F4B1F4A02961B
:103C400009A905F0CDFC04460D4654EA050008D04C
:103C500060200090094B1AA2002115A016F0D0FF99
:103C60003E7038786421CDE90010044B20A2032176
:103C70000FA016F0C5FF20462946BAE7888803083A
:103C80005B25733A2564292043616E27742067659C
:103C90007420616972637261667420696E666F2058
:103CA000706172616D20636F6E666967000000006D
:103CB000696E666F720000005D420008D0C001208E
:103CC0005B25733A25642920636865636B20636F05
:103CD0006E6E65637420737461747573206173799B
:103CE0006E632073656E64206572726F72000000EF
:103CF0005B25733A25642920636865636B20636FD5
:103D00006E6E656374207374617475733A25640014
:103D1000F0B58DB00746002609960A960B960C96CC
:103D200003A800F01BFA04460D462C430BD0942048
:103D30000090254B25A2022130A016F061FFE32060
:103D400000210DB0F0BD02248DF82440FDF71EFCCB
:103D500004F03CFDADF82C009DF80F008DF8270015
:103D60009DF821008DF828008DF825608DF82640FB
:103D70008DF829608DF82A600C96FDF707FC4FF44A
:103D80007A71CDE900711F4B0022029609A905F056
:103D900027FC04460D4654EA050008D0A6200090F2
:103DA000094B19A2002115A016F02AFF3E703878A1
:103DB000AA21CDE90010044B1FA203210FA016F089
:103DC0001FFF20462946BCE7FF8803085B25733A9E
:103DD0002564292043616E2774206765742061691A
:103DE00072637261667420696E666F2070617261C1
:103DF0006D20636F6E66696700000000696E666F14
:103E000072000000694400085B25733A256429208C
:103E1000636865636B20636F6E6E65637420737493
:103E200061747573206173796E632073656E6420AD
:103E30006572726F720000005B25733A2564292059
:103E4000636865636B20636F6E6E65637420737463
:103E5000617475733A256400F0B58DB0074600268D
:103E600009960A960B960C9603A800F077F904467B
:103E70000D462C430BD071200090254B25A202212A
:103E800030A016F0BDFEE32000210DB0F0BD0224ED
:103E90008DF82440FDF77AFB04F098FCADF82C0077
:103EA00013208DF827009DF821008DF828008DF84B
:103EB00025608DF826408DF829608DF82A600C96D3
:103EC000FDF764FB4FF47A71CDE900711F4B0022BE
:103ED000029609A905F084FB04460D4654EA050044
:103EE00008D0832000900A4B19A2002115A016F0DB
:103EF00087FE3E7038788721CDE90010044B20A260
:103F0000032110A016F07CFE20462946BDE70000E4
:103F1000CB8803085B25733A2564292043616E270B
:103F200074206765742061697263726166742069C8
:103F30006E666F20706172616D20636F6E66696777
:103F400000000000696E666F72000000694400089E
:103F50005B25733A25642920636865636B20636F72
:103F60006E6E656374207374617475732061737908
:103F70006E632073656E64206572726F720000005C
:103F80005B25733A25642920636865636B20636F42
:103F90006E6E656374207374617475733A25640082
:103FA0008B899BB205F034BA70B592B005460E46C7
:103FB00020210AA8FCF707FA1F4806ACD0E918230D
:103FC000C16D806E0EC4099000248DF828409DF8C4
:103FD000290020F0F000303020F00F008DF829008B
:103FE000102206A90DF12A00FCF7D2F9059403204E
:103FF0008DF841008DF84040BDF81400ADF83E004A
:104000001E230AAA3146284605F002FA04460D4648
:1040100054EA05000BD04FF4B670074B00902B33D9
:1040200006A20021CDE902450EA016F0E9FD12B06E
:104030002046294670BD0000888A03085B25733A34
:10404000256429206765742076657273696F6E2018
:1040500061636B206572726F723A30782530386C0C
:104060006C580000696E666F7200000030B59DB03C
:1040700015A800F073F804460D462C430BD0B7206A
:104080000090264B26A2022131A016F0B9FDE320B4
:1040900000211DB030BD50222049373101A8FCF766
:1040A00077F99DF857008DF805008DF815008DF80B
:1040B00025008DF835008DF8450015A800F04EF864
:1040C00004460D4654EA05000AD0C8200090134B60
:1040D00013A202211EA016F093FDE3200021D8E7D1
:1040E00001A81B900520ADF87000FDF74FFA1BA941
:1040F00004F002FE04460D4654EA05000AD0D22020
:104100000090064B144A002111A016F079FD2046BC
:104110002946BEE720462946BBE70000418903083F
:104120005B25733A2564292043616E2774206765F7
:104130007420616972637261667420696E666F20B3
:10414000706172616D20636F6E66696700000000C8
:10415000696E666F72000000DC2B040870B586B0D3
:10416000044605A8FDF7F4F950EA010220D104A89D
:10417000FDF73EFB50EA01021AD100209DF8142001
:10418000154D9DF8103000EB400115F83160964256
:1041900010D105EBC101497899420BD100EB4000E9
:1041A00005EBC00118222046FCF7F2F8002001467A
:1041B00006B070BD401C1128E5D340F215108DE803
:1041C0000D00064B064A002106A016F019FD4FF41B
:1041D00080700021ECE70000F48A03088C8C03084F
:1041E0002C2C04087574696C7300000038B50A48FB
:1041F00001690A48884704460D4654EA050008D07C
:1042000040F275300090064B06A2002111A016F076
:10421000F7FC2046294638BD14A40120C8350020EB
:10422000377703085B25733A256429206368656343
:104230006B20616972637261667420636F6E6E6574
:104240006374696F6E207374617475732065727224
:104250006F720000696E666F720000002DE9FE4308
:10426000164600242546002E23D0364FA046386837
:10427000401C002B29D0012B55D0386040F2431050
:10428000CDE90003304B31A200213FA016F0B8FC6D
:104290003868052808D940F2471000902A4B3CA204
:1042A000002139A016F0ACFC2046294603B0BDE839
:1042B000F0834FF494700090234B40A2002132A071
:1042C00016F09EFCEC200021F0E7DFF87890D1F8A2
:1042D000021009F10409D9F80220914213D1C7F85C
:1042E000008040F23110CDE90001174B43A20321B9
:1042F00025A016F085FCD9F80200401CC9F8020080
:1043000001203070C4E7386040F237108DE80700B4
:104310000D4B484A00211CA016F072FC86F8008064
:10432000EC240025B4E738604FF49F700090064BF2
:1043300041A2002114A016F063FC86F80080E1245D
:104340000025A5E7CCC001207D8A03085B25733AD0
:1043500025642920436865636B2068656172746217
:1043600065617420737461747573206173796E6311
:10437000206661696C6564203A2063625F747970BD
:104380006528256429000000696E666F72000000D0
:104390005B25733A25642920436865636B206C6F45
:1043A000737420636F6E6E656374696F6E207769D6
:1043B00074682044726F6E65210000005B25733ABB
:1043C00025642920636865636B20636F6E6E656387
:1043D00074696F6E206F757470757420666C616798
:1043E00020707472206973206120696E76616C6937
:1043F000642076616C75652E000000005B25733AC1
:1044000025642920436865636B2068656172746266
:1044100065617420737461747573206173796E6360
:10442000207375636573732C20736571203A2025A2
:1044300064000000982B04085B25733A256429204A
:10444000436865636B20686561727462656174209E
:10445000737461747573206173796E632074696D10
:10446000656F757400000000F8B5164600242546F7
:10447000002E03D073B1012B18D024E04FF48570C7
:104480000090124B12A2002121A016F0B9FBEC20E3
:104490000021F8BD40F20F1000900C4B1EA203212A
:1044A0001BA016F0ADFB012030700CE040F21310A1
:1044B0000090064B21A2012115A016F0A1FB0020BF
:1044C0003070E124002520462946F8BD508A0308B3
:1044D0005B25733A25642920636865636B20636FED
:1044E0006E6E656374696F6E206F7574707574207D
:1044F000666C616720707472206973206120696E38
:1045000076616C69642076616C75652E0000000030
:10451000696E666F720000005B25733A256429207E
:10452000636F6E6E6563742073746174757320615C
:1045300073796E6320737563657373005B25733ADB
:1045400025642920636F6E6E6563742073746174D3
:104550007573206173796E632074696D656F75740E
:10456000000000000148407870470000C835002076
:104570000021074A12F83130834203D102EBC10017
:1045800040687047491C0629F4D302A07047000018
:10459000AC740308556E6B6E6F776E002DE9F047B3
:1045A00096B0002412941394149415940E940F94BE
:1045B000109411940D94242104A8FBF704FF1CF01F
:1045C000DFF9064601200D9002218DF84810E52202
:1045D0008DF84B2065228DF84C208DF849408DF8E0
:1045E0004A108DF84D4051218DF84E10159004AFB2
:1045F0004FF003084FF47A794FF0230AFCF7C6FF17
:1046000004F0E4F8ADF85000FCF7C0FFCDE901A9D3
:104610000EAB0DAA12A9CDF80C80009705F0DEFABA
:104620000D46044654EA05000DD040F26530009076
:10463000154B164A002116A016F0E2FAB1684FF4A5
:10464000FA708847DAE79DF8100070B140F25E31E9
:10465000CDE900100C4B10A200210DA016F0D0FAED
:10466000FF20002116B0BDE8F0870DF1130040F2E5
:104670005A31CDE90010044B13A2022104A016F018
:10468000BFFA20462946EDE71077030864170408AF
:10469000696E666F720000005B25733A25642920FD
:1046A0004765742073657269616C206E756D626513
:1046B000722061636B206572726F722C207374615B
:1046C000743A256C6C6400005B25733A25642920DC
:1046D0004765742073657269616C206E756D6265E3
:1046E00072206F6620536B79706F7274205632207F
:1046F0006F7220582D506F727420697320257300DB
:104700000021074A32F83130834203D102EBC10065
:1047100040687047491C1229F4D302A0704700007A
:10472000B4730308556E6B6E6F776E00F0B58DB085
:104730000746002609960A960B960C96059606964D
:10474000079608960496384C20780A283CD0022513
:104750008DF82450FCF71AFF04F038F8ADF82C005F
:10476000E0788DF8270020798DF828008DF82560F5
:104770008DF8265003248DF82940FD208DF82A005D
:104780000C96FCF703FF012204AB4FF47A71CDE9DC
:104790000032CDE9021405AB002209A905F01EFA8A
:1047A00004460D4654EA050013D040F2CE20009096
:1047B0001E4B1FA20021CDE9024528A016F020FAC9
:1047C000204629460DB0F0BD672038800020014604
:1047D000F8E79DF810004D281FD00CDC2E281AD0C9
:1047E00004DC2C2817D02D2811D114E03C2812D03D
:1047F00043280CD111E05B280FD004DC4E280AD0EE
:10480000592804D107E0632807D0642805D03E80EA
:1048100020462946D6E73880FAE7384600F022F8E5
:1048200004460D46F4E7000014A40120C6760308F0
:104830005B25733A2564292067657420616972637A
:10484000726166742074797065206572726F723A55
:104850002030782530386C6C582E0000696E666FF9
:10486000720000002DE9F04798B006460027149723
:10487000159716971797109711971297139720214E
:1048800008A8FBF7A0FD02258DF850507648C078A7
:104890008DF8530001248DF85440FCF777FE03F0A7
:1048A00095FFADF858008DF851708DF852508DF885
:1048B00055708DF856401797FCF768FE4FF47A79DB
:1048C0001E22CDE9012903210DF12008039110AB2F
:1048D000CDF80080002214A905F080F904460D46A9
:1048E00054EA050029D040F2892000905F4B60A275
:1048F0000021CDE902456EA016F082F92046294636
:1049000012F01AFC00287ED122462B4602A812F093
:1049100057FB02A805AB07C807C3DDE905210798C7
:1049200040F28A23CDE90032CDE902104F4B62A25A
:1049300000215FA016F064F965E09DF8200070B1D9
:1049400040F28D21CDE90010484B5FA2022158A012
:1049500016F056F937809DF82040122553E068A1E3
:1049600008F10200FBF75FFD002851D065A108F1B6
:104970000200FBF758FD00284FD064A108F10200A7
:10498000FBF751FD00284BD061A108F10200FBF7B5
:104990004AFD002847D05FA108F10200FBF743FD64
:1049A0004FF05B0A002841D05BA108F10200FBF741
:1049B0003AFD80B35AA108F10200FBF734FD4FF035
:1049C0005D0A48B358A108F10200FBF72CFD80B343
:1049D00057A108F10200FBF726FD58B355A108F1D5
:1049E0000200FBF720FD78B353A108F10200FBF7AA
:1049F0001AFD50B352A108F10200FBF714FD78B381
:104A00003780FF24002518B020462946BDE8F087EE
:104A100043203080F7E70EE010E044203080F2E7DA
:104A20004D203080EFE74F203080ECE7A6F800A063
:104A3000E9E706E00AE0A6F800A0E4E7A6F800A08F
:104A4000E1E7A6F800A0DEE703E006E0632030809F
:104A5000D9E740F2DE303080D5E764203080D2E7FD
:104A6000FFE7A6F80090CEE714A40120977603088C
:104A70005B25733A25642920476574206169726358
:104A8000726166742063616D657261207665727310
:104A9000696F6E206661696C65642C206572726E48
:104AA0006F3A2030782530386C6C582E00000000AA
:104AB000696E666F720000005B25733A25642920D9
:104AC00025732573257300005B25733A256429201F
:104AD00067657420616972637261667420747970AD
:104AE00065206572726F722120636D642072657437
:104AF00075726E20636F64653A20256400000000C3
:104B00004D3330004D333054000000004D3345002C
:104B10004D3354004D3344004D3230450000000009
:104B20004D335444000000004D323054000000006A
:104B30004D3454004D3445004D34544400000000C1
:104B40004D3444000021074A12F83130834203D12A
:104B500002EBC10040687047491C0529F4D302A04C
:104B600070470000DC740308556E6B6E6F776E0043
:104B70000021074A12F83130834203D102EBC10011
:104B800040687047491C0329F4D302A07047000015
:104B900004750308556E6B6E6F776E0010B5044692
:104BA0004FF4BF71064806F091FBFFF7DBFC20B124
:104BB0002046BDE8104027F06FBBEE20002110BD5D
:104BC0006C75030810B588B004464FF4DD711948C0
:104BD00006F07CFBFFF7C6FC38B14CB116480078F4
:104BE00020700020014608B010BDEE200021FAE739
:104BF000E320002112F0A0FAC0B9E322002302A8AA
:104C000012F0DEF902A805AB07C807C3DDE90521EC
:104C10004FF4E0730798CDE90032CDE90210054B5F
:104C200006A22433002109A015F0EAFFE3200021A9
:104C3000D9E70000E8750308C83500205B25733A02
:104C4000256429202573257325730000696E666F1E
:104C50007200000010B5044640F29D11064806F0AF
:104C600035FBFFF77FFC20B12046BDE8104027F060
:104C700095BBEE20002110BDA57503080021074A51
:104C800012F83130834203D102EBC1004068704713
:104C9000491C0D29F4D302A0704700004474030896
:104CA000556E6B6E6F776E0001498968084700008A
:104CB00014A401202DE9F04F8FB01BF061FE0646D1
:104CC000DFF8C48298F8010020B1002001460FB03F
:104CD000BDE8F08FAD48FFF741FA04460D4654EAAF
:104CE00005000AD0D2200090A94BAAA20021B1A0B1
:104CF00015F086FFE3200021E9E7DFF8909299F8AC
:104D0000020050B1D7200090A14BAC4A0021A9A0CD
:104D100015F076FFE0200021D9E709A805F0B4FAE4
:104D20000D46044654EA05000CD0DD200090984B57
:104D3000A3A20021CDE902459EA015F061FF204607
:104D40002946C4E7924805AC0C30D0E90423C16879
:104D500080690EC408909DF827008DF815008A48D8
:104D6000F1680830884704460D4654EA05000AD029
:104D7000EA200090864BA1A200218EA015F040FFF2
:104D800020462946A3E78048F1680C30884704464E
:104D90000D4654EA05000AD0F02000907C4B97A203
:104DA000002184A015F02CFF204629468FE705A896
:104DB0000D904FF0010AADF838A0FCF7E7FB0DA904
:104DC00003F09AFF04460D4654EA05000AD0FA2083
:104DD00000906F4B90A2002176A015F011FF2046A5
:104DE000294674E77169D8F8080088471BF0AAFDC6
:104DF000C0B11BF0A7FD02690CA9012090470D4628
:104E0000044654EA05000DD040F203100090604BB8
:104E100091A20021CDE902459CA015F0F1FEEC2005
:104E2000002154E7584F99F800101037397099F85D
:104E3000010078704FF0000B022904D1022802D142
:104E40009DF8300030B1A7F802B04FF47A7540F207
:104E5000151411E03C20788011E0B81CFFF766FCC7
:104E6000788848B9B16828468847494B89A2022109
:104E700050A0009415F0C4FE78880028EDD0381DAD
:104E8000FFF712FF0D46044654EA05001BD04FF40D
:104E90008E7000903E4B8AA2002146A015F0B0FE15
:104EA0006AE0D9F80C10401D884704460D4654EAC4
:104EB000050008D040F223100090354B894A0021AC
:104EC0003CA015F09DFE797938460029E9D0787923
:104ED0004FF49471CDE900102D4B83A2032135A02E
:104EE00015F08EFE7878012810D1FFF757FB0D469C
:104EF000044654EA050009D040F22D100090244BDE
:104F000082A200212BA015F07BFE35E0FFF7AEF862
:104F10000D46044654EA050009D040F235100090D1
:104F20001B4B85A2002123A015F06AFE24E0174840
:104F30008CA1183881609049C160C0F810B005F0AC
:104F400023FA1249183922F0D5F904460D4654EADD
:104F500005000BD040F23F1000900D4B87A20021BE
:104F6000CDE9024513A015F04BFE05E088F800A03E
:104F70000024254688F801A0B169D8F808008847C0
:104F800020462946A3E60000C835002014A40120CD
:104F90001C7503085B25733A2564292043616E273D
:104FA000742067657420706172616D20636F6E6636
:104FB00069670000696E666F72000000E01A0408FD
:104FC0005B25733A256429204661696C20746F2043
:104FD00067657420636F726520706172616D206314
:104FE0006F6E6669672C2072657475726E20636FD0
:104FF0006465203078253038580000005B25733A0E
:1050000025642920437265617465206D7574657827
:10501000206572726F722E005B25733A2564292019
:105020005265676973746572206169726372616643
:105030007420696E666F726D6174696F6E20636F44
:105040006D6D616E642068616E646C65722065725E
:10505000726F722E000000005B25733A25642920D0
:105060004765742075617274207374617475732060
:105070006572726F722C2072657475726E436F6404
:1050800065203D20256C6C64000000006164617047
:10509000746572005B25733A256429205472792067
:1050A000746F206765742061697263726166742031
:1050B0007479706520616761696E2E2E2E00000084
:1050C0005B25733A256429204765742073646B203F
:1050D00061646170746572207479706520657272A4
:1050E0006F720000FC1704085B25733A25642920C1
:1050F000446576696365206D6F756E74696E6720AF
:105100006F6E20706F732025640000005B25733A7A
:10511000256429204765742073646B206164617085
:105120007465722073657269616C206E756D62655D
:1051300072206572726F72005B25733A25642920B4
:105140005265676973746572206865617274206264
:105150006561742063616C6C6261636B206572725F
:105160006F7200006169726372616674576F726B6F
:105170004E6F646500000000295400085B25733AF7
:1051800025642920616464206169726372616674B8
:1051900020776F726B206E6F6465206572726F721C
:1051A0003A30782530386C6C580000002DE9F04F0B
:1051B00085B08B4616461BF0E3FB81460020049029
:1051C00000273078FFF7BEFC04467078FFF7D0FC6C
:1051D00000B94FA004B94EA440F2FE21CDE900145D
:1051E00002904C4B4CA202215BA015F009FDDFF8A8
:1051F00070A1D9F81410DAF80C0088470D4604465F
:105200004FF0FF0854EA05000BD04FF441700090B6
:10521000404B54A2002150A015F0F2FCCDF81080B4
:1052200056E000204E4C564A3178A41C12F810303B
:105230008B4205D1012702EB40004078207002E04C
:10524000401C0428F2D3E32577B1002300204C4A08
:105250007178121F12F810608E4213D1012302EBF5
:1052600040004078607010E040F21230CDE900015B
:10527000284B44A2002138A015F0C2FC84F800801D
:10528000049510E0401C0228E4D363B940F22230B8
:10529000CDE900011F4B45A200212FA015F0B0FC65
:1052A00084F801800495D9F81810DAF80C008847C2
:1052B00004460D4654EA05000AD04FF44B700090A6
:1052C000144B44A2002124A015F09AFCCDF81080C4
:1052D000FCF75CF9012304AA594604F099F80D463D
:1052E000044654EA05000FD040F235300090094BD7
:1052F0003FA20021CDE9024517A015F081FC204610
:10530000294605B0BDE8F08F00200146F9E700000E
:1053100000000000E67603085B25733A2564292027
:10532000536574206D6F62696C65206170702069CF
:105330006E666F2C206C616E67756167652069739E
:105340002025732C2073637265656E2074797065F7
:105350002069732025730000696E666F720000007B
:10536000C83500205B25733A256429206C6F636B78
:10537000206D75746578206572726F722E00000062
:10538000AC7303085B25733A256429206170702093
:105390006C616E677561676520697320696E7661FF
:1053A0006C69643A2025642E000000005B25733A86
:1053B000256429206170702073637265656E2074A6
:1053C00079706520697320696E76616C69643A2032
:1053D00025642E005B25733A25642920756E6C6F59
:1053E000636B206D75746578206572726F722E0024
:1053F0005B25733A25642920446A69436F6D6D61AA
:105400006E645F53656E6441636B446174612065D3
:1054100072726F72202C73746174203D2030782575
:1054200030386C6C5800000008B504F0A1FF0C4B3C
:1054300059684A1C5A60B1FBF0F200FB12100028B8
:105440000CD1FEF7D3FE084308D040F2853000901F
:10545000044B05A2002110A015F0D2FB08BD0000EE
:10546000C8350020677703085B25733A2564292037
:10547000636865636B20636F6E6E6563742073741D
:1054800061747573206173796E632073656E642037
:105490006572726F72000000696E666F72000000C4
:1054A00010B5044608492046FAF7BDFF38B1064951
:1054B0002046891DFAF7B7FF18B1002010BD012062
:1054C00010BD022010BD0000AB8C030870B506466D
:1054D00000240A4D04EB440005EB8000416830468F
:1054E000FAF77CFF28B104EB440005EB8000007A5A
:1054F00070BD641C0E2CEDD3002070BDE0C00120F7
:105500000021094A01EB410332F82330834205D1DF
:1055100001EB410002EB8000007A7047491C0E2924
:10552000F0D3002070470000E0C001202DE9FF41CA
:1055300007461BF025FA0646DFF874807169D8F833
:105540000400884704460D4654EA05000ED0A92001
:105550000090184B18A20021CDE902451FA015F0BC
:105560004FFB2046294604B0BDE8F08198F80000C2
:10557000B8B101203870B169D8F8040088470D46E9
:10558000044654EA05000FD0B5200090094B15A23F
:105590000021CDE9024511A015F032FB2046294635
:1055A000E1E700203870E6E700200146DBE7000075
:1055B000E03500207C7803085B25733A25642920B8
:1055C0006C6F636B206D75746578206572726F7295
:1055D0003A2030782530386C6C582E00636F726535
:1055E000000000005B25733A25642920756E6C6FFE
:1055F000636B206D75746578206572726F723A20E6
:1056000030782530386C6C582E00000070B588B0AA
:1056100004460D460022069207928DF818200120BC
:105620008DF8190020499DF81A200B7863F30002C9
:10563000590861F34102990861F38202D90861F3C4
:10564000C3028DF81A20C2F3C003C2F38006C2F36E
:10565000400102F00102CDE90221CDE904634FF4DB
:105660009571CDE90010114B114A032111A015F0DD
:10567000C7FA062306AA2946204603F0C9FE0446B7
:105680000D4654EA05000AD04FF49A700090074B7B
:105690000AA20021CDE9024506A015F0B1FA08B032
:1056A0002046294670BD0000E83500202079030817
:1056B000D01C0408636F7265000000005B25733A1C
:1056C0002564292067657420444A492070726F64FC
:1056D00075637420696E666F726D6174696F6E2098
:1056E00061636B206572726F723A30782530386C66
:1056F0006C5800002DE9F04786B0074688461BF03D
:105700003FF906464FF0000ACDF814A0DFF8A89044
:105710007169D9F80400884704460D4654EA05002B
:105720000FD040F205100090244B25A20021CDE9B6
:1057300002452CA015F064FA2046294606B0BDE8C3
:10574000F0878DF814A099F800109DF8150061F30A
:1057500000008DF81500B169D9F8040088470446A7
:105760000D4654EA05000DD04FF487700090134B9E
:105770001EA20021CDE902451AA015F041FA2046EB
:105780002946DBE7022305AA4146384603F040FEDE
:105790000D46044654EA05000AD040F21510009068
:1057A000064B1CA20021CDE902450EA015F028FAF7
:1057B00020462946C2E70000E0350020E9780308CA
:1057C0005B25733A256429206C6F636B206D7574BB
:1057D0006578206572726F723A2030782530386CA7
:1057E0006C582E00636F7265000000005B25733AF1
:1057F00025642920756E6C6F636B206D75746578F8
:10580000206572726F723A2030782530386C6C588F
:105810002E0000005B25733A2564292067657420FB
:10582000444A492070726F6475637420696E666FB4
:10583000726D6174696F6E2061636B206572726F47
:10584000723A30782530386C6C58000030B58DB025
:1058500004460D46242104A8FAF7B5FD00208DF872
:1058600010002020ADF811001848827804A82AB151
:1058700020221749C01CFAF78BFD0DE0202215A14C
:10588000C01CFAF785FD40F2711000901A4B1B4ABC
:1058900001211BA015F0B4F9232304AA29462046B0
:1058A00003F0B6FD0D46044654EA05000AD040F266
:1058B00079100090104B14A20021CDE9024510A0F0
:1058C00015F09EF90DB02046294630BDE035002088
:1058D0003BCF01203132333435363738393031322D
:1058E000333435363738393031323334353637386A
:1058F0003930585800000000947903085C1B0408F4
:10590000636F7265000000005B25733A25642920EF
:105910006765742073657269616C206E756D626570
:10592000722061636B206572726F723A3078253035
:10593000386C6C580000000070B592B006460D46F9
:1059400020210AA8FAF73FFD334A06ACD2E9031337
:10595000906852690BC40992E8784FF4A271CDE9BE
:1059600000102D4B2DA2253B032138A015F048F93E
:1059700000248DF828409DF8290020F0F002103214
:1059800022F00F008DF82900102206A90DF12A003F
:10599000FAF7FEFC2F48407870B12E4A0C3210788E
:1059A0008DF8410050788DF8400090788DF83F00D8
:1059B000D0788DF83E0014E0059403208DF8410066
:1059C0000A208DF84000BDF81400ADF83E0040F20A
:1059D0005510114B0090253B1F4A01211BA015F0CB
:1059E0000FF91E230AAA2946304603F011FD0D4681
:1059F000044654EA05000BD04FF4AE70064B0090FD
:105A0000253B16A20021CDE9024510A015F0F8F8BB
:105A100012B02046294670BD7C7903085B25733A95
:105A200025642920476574207061796C6F6164205A
:105A3000637573746F6D2076657273696F6E20661F
:105A4000726F6D203078253038580000636F7265B2
:105A500000000000E0350020EC1B04085B25733AD1
:105A6000256429206765742076657273696F6E20DE
:105A700061636B206572726F723A30782530386CD2
:105A80006C58000070B59EB01AF07AFF06462A489E
:105A900004F0FAFB04460D462C430BD05420009032
:105AA000264B27A200212FA015F0AAF8E320002101
:105AB0001EB070BD60222149203104A8FAF768FCAD
:105AC0001D48C0788DF811008DF821008DF8310047
:105AD0008DF85100F1682548884704460D4654EA80
